{
  "contractName": "Cars",
  "abi": [
    {
      "constant": false,
      "inputs": [],
      "name": "setupCarList",
      "outputs": [],
      "payable": false,
      "stateMutability": "nonpayable",
      "type": "function"
    },
    {
      "constant": false,
      "inputs": [
        {
          "name": "_carAddress",
          "type": "address"
        },
        {
          "name": "_field",
          "type": "string"
        },
        {
          "name": "_answer",
          "type": "string"
        }
      ],
      "name": "newCar",
      "outputs": [
        {
          "name": "_carID",
          "type": "uint256"
        }
      ],
      "payable": false,
      "stateMutability": "nonpayable",
      "type": "function"
    },
    {
      "constant": true,
      "inputs": [],
      "name": "listCars",
      "outputs": [
        {
          "name": "",
          "type": "uint256[]"
        }
      ],
      "payable": false,
      "stateMutability": "view",
      "type": "function"
    },
    {
      "constant": true,
      "inputs": [
        {
          "name": "_id",
          "type": "uint256"
        }
      ],
      "name": "getCar",
      "outputs": [
        {
          "name": "_carId",
          "type": "uint256"
        },
        {
          "name": "_carAddress",
          "type": "address"
        },
        {
          "name": "_field",
          "type": "string"
        },
        {
          "name": "_answer",
          "type": "string"
        }
      ],
      "payable": false,
      "stateMutability": "view",
      "type": "function"
    },
    {
      "constant": false,
      "inputs": [],
      "name": "kill",
      "outputs": [],
      "payable": false,
      "stateMutability": "nonpayable",
      "type": "function"
    }
  ],
  "bytecode": "0x6060604052336000806101000a81548173ffffffffffffffffffffffffffffffffffffffff021916908373ffffffffffffffffffffffffffffffffffffffff1602179055506109e4806100536000396000f30060606040526004361061006d576000357c0100000000000000000000000000000000000000000000000000000000900463ffffffff16806341c0e1b5146100725780635e8be19014610087578063cdb3ef18146101c9578063d8a44fd914610233578063e2edca6114610306575b600080fd5b341561007d57600080fd5b61008561031b565b005b341561009257600080fd5b6100a860048080359060200190919050506103b0565b604051808581526020018473ffffffffffffffffffffffffffffffffffffffff1673ffffffffffffffffffffffffffffffffffffffff1681526020018060200180602001838103835285818151815260200191508051906020019080838360005b83811015610124578082015181840152602081019050610109565b50505050905090810190601f1680156101515780820380516001836020036101000a031916815260200191505b50838103825284818151815260200191508051906020019080838360005b8381101561018a57808201518184015260208101905061016f565b50505050905090810190601f1680156101b75780820380516001836020036101000a031916815260200191505b50965050505050505060405180910390f35b34156101d457600080fd5b6101dc610472565b6040518080602001828103825283818151815260200191508051906020019060200280838360005b8381101561021f578082015181840152602081019050610204565b505050509050019250505060405180910390f35b341561023e57600080fd5b6102f0600480803573ffffffffffffffffffffffffffffffffffffffff1690602001909190803590602001908201803590602001908080601f0160208091040260200160405190810160405280939291908181526020018383808284378201915050505050509190803590602001908201803590602001908080601f016020809104026020016040519081016040528093929190818152602001838380828437820191505050505050919050506105ba565b6040518082815260200191505060405180910390f35b341561031157600080fd5b6103196106af565b005b6000809054906101000a900473ffffffffffffffffffffffffffffffffffffffff1673ffffffffffffffffffffffffffffffffffffffff163373ffffffffffffffffffffffffffffffffffffffff1614151561037657600080fd5b6000809054906101000a900473ffffffffffffffffffffffffffffffffffffffff1673ffffffffffffffffffffffffffffffffffffffff16ff5b6000806103bb6108eb565b6103c36108eb565b60006001541115156103d457600080fd5b6000851180156103e657506001548511155b15156103f157600080fd5b6001338191506040805190810160405280600481526020017f74657374000000000000000000000000000000000000000000000000000000008152506040805190810160405280600481526020017f746573740000000000000000000000000000000000000000000000000000000081525093509350935093509193509193565b61047a6108ff565b6104826108ff565b60008061048d6108ff565b60008060015414156104c05760006040518059106104a85750595b908082528060200260200182016040525095506105b2565b6001546040518059106104d05750595b9080825280602002602001820160405250945060009350600192505b6001548311151561053f576002600084815260200190815260200160002060000154858581518110151561051c57fe5b9060200190602002018181525050838060010194505082806001019350506104ec565b8360405180591061054d5750595b90808252806020026020018201604052509150600090505b838110156105ae57848181518110151561057b57fe5b90602001906020020151828281518110151561059357fe5b90602001906020020181815250508080600101915050610565565b8195505b505050505090565b6000600160008154809291906001019190505590506080604051908101604052808281526020018573ffffffffffffffffffffffffffffffffffffffff16815260200184815260200183815250600260008381526020019081526020016000206000820151816000015560208201518160010160006101000a81548173ffffffffffffffffffffffffffffffffffffffff021916908373ffffffffffffffffffffffffffffffffffffffff1602179055506040820151816002019080519060200190610687929190610913565b5060608201518160030190805190602001906106a4929190610913565b509050509392505050565b60008060009054906101000a900473ffffffffffffffffffffffffffffffffffffffff1673ffffffffffffffffffffffffffffffffffffffff163373ffffffffffffffffffffffffffffffffffffffff1614151561070c57600080fd5b610781336040805190810160405280600581526020017f7469746c650000000000000000000000000000000000000000000000000000008152506040805190810160405280600481526020017f4d696e69000000000000000000000000000000000000000000000000000000008152506105ba565b90506107f8336040805190810160405280600581526020017f7469746c650000000000000000000000000000000000000000000000000000008152506040805190810160405280600381526020017f424d5700000000000000000000000000000000000000000000000000000000008152506105ba565b905061086f336040805190810160405280600581526020017f7469746c650000000000000000000000000000000000000000000000000000008152506040805190810160405280600481526020017f476f6c66000000000000000000000000000000000000000000000000000000008152506105ba565b90506108e6336040805190810160405280600581526020017f7469746c650000000000000000000000000000000000000000000000000000008152506040805190810160405280600b81526020017f526f6c6c7320526f7963650000000000000000000000000000000000000000008152506105ba565b905050565b602060405190810160405280600081525090565b602060405190810160405280600081525090565b828054600181600116156101000203166002900490600052602060002090601f016020900481019282601f1061095457805160ff1916838001178555610982565b82800160010185558215610982579182015b82811115610981578251825591602001919060010190610966565b5b50905061098f9190610993565b5090565b6109b591905b808211156109b1576000816000905550600101610999565b5090565b905600a165627a7a72305820098bbf0d9bcff39ec81e9181a300992a44882bba6d0debc1aef0c46cdc407bbf0029",
  "source": "pragma solidity ^0.4.2;\n\nimport \"./Owned.sol\";\n\ncontract Cars is Owned {\n\nstruct Car {\n    uint    id;\n    address carAddress;\n    string  field;\n    string answer;\n}\n    uint numCars;\n    mapping (uint => Car) cars;\n\n    function setupCarList() onlyOwner public {\n        uint newCarID;\n        newCarID = newCar(msg.sender,\"title\",\"Mini\");\n        newCarID = newCar(msg.sender,\"title\",\"BMW\");\n        newCarID = newCar(msg.sender,\"title\",\"Golf\");\n        newCarID = newCar(msg.sender,\"title\",\"Rolls Royce\");\n    }\n\n    function newCar(address _carAddress, string _field, string _answer) public returns (uint _carID) {\n        _carID = numCars++; // campaignID is return variable\n        // Creates new struct and saves in storage. We leave out the mapping type.\n        cars[_carID] = Car(_carID, _carAddress, _field, _answer);\n        }\n\n    function listCars() public view returns (uint[]) {\n        if (numCars == 0) {\n        return new uint[](0);\n        }\n\n        // prepare intermediary array\n        uint[] memory cardIds = new uint[](numCars);\n\n        uint numberOfCards = 0;\n        // iterate over cards\n        for (uint i = 1; i <= numCars; i++) {\n        // keep only the ID of articles not sold yet\n            cardIds[numberOfCards] = cars[i].id;\n            numberOfCards++;\n        \n        }\n\n        // copy the articleIds array into the smaller forSale array\n        uint[] memory carCards = new uint[](numberOfCards);\n        for (uint j = 0; j < numberOfCards; j++) {\n        carCards[j] = cardIds[j];\n        }\n        return (carCards);\n    }\n\n    function getCar(uint _id) public view returns (uint256 _carId,address _carAddress,string  _field,string _answer ) {\n        // we check whether there is at least one car\n    require(numCars > 0);\n\n    // we check whether the article exists\n    require(_id > 0 && _id <= numCars);\n     \n    //retrieve the car details\n    //Car storage car = cars[_id];\n\n    //string[4] arrCar = car(_id); \n    return (1,msg.sender,\"test\",\"test\");\n       // car(0),car(_id)(1),car(_id)(2),car(_id)(3));\n\n     }\n\n    // kill the smart contract\n    function kill() onlyOwner public {\n    selfdestruct(owner);\n  }\n}",
  "sourcePath": "/Volumes/STORAGE/Dropbox/webdev/TopBlox/contracts/Cars.sol",
  "compiler": {
    "name": "solc",
    "version": "0.4.19+commit.c4cbbb05.Emscripten.clang"
  },
  "schemaVersion": "2.0.0",
  "updatedAt": "2018-03-15T20:44:54.015Z"
}