{
  "contractName": "Cars",
  "abi": [
    {
      "constant": false,
      "inputs": [
        {
          "name": "_carAddress",
          "type": "address"
        },
        {
          "name": "_field",
          "type": "string"
        },
        {
          "name": "_answer",
          "type": "uint256"
        }
      ],
      "name": "newCar",
      "outputs": [
        {
          "name": "_carID",
          "type": "uint256"
        }
      ],
      "payable": false,
      "stateMutability": "nonpayable",
      "type": "function"
    },
    {
      "constant": true,
      "inputs": [],
      "name": "listCards",
      "outputs": [
        {
          "name": "",
          "type": "uint256[]"
        }
      ],
      "payable": false,
      "stateMutability": "view",
      "type": "function"
    },
    {
      "constant": false,
      "inputs": [],
      "name": "kill",
      "outputs": [],
      "payable": false,
      "stateMutability": "nonpayable",
      "type": "function"
    }
  ],
  "bytecode": "0x6060604052336000806101000a81548173ffffffffffffffffffffffffffffffffffffffff021916908373ffffffffffffffffffffffffffffffffffffffff160217905550610518806100536000396000f300606060405260043610610057576000357c0100000000000000000000000000000000000000000000000000000000900463ffffffff16806336a97cdd1461005c57806341c0e1b5146100f5578063db5f97351461010a575b600080fd5b341561006757600080fd5b6100df600480803573ffffffffffffffffffffffffffffffffffffffff1690602001909190803590602001908201803590602001908080601f01602080910402602001604051908101604052809392919081815260200183838082843782019150505050505091908035906020019091905050610174565b6040518082815260200191505060405180910390f35b341561010057600080fd5b610108610256565b005b341561011557600080fd5b61011d6102eb565b6040518080602001828103825283818151815260200191508051906020019060200280838360005b83811015610160578082015181840152602081019050610145565b505050509050019250505060405180910390f35b6000600160008154809291906001019190505590506080604051908101604052808281526020018573ffffffffffffffffffffffffffffffffffffffff16815260200184815260200183815250600260008381526020019081526020016000206000820151816000015560208201518160010160006101000a81548173ffffffffffffffffffffffffffffffffffffffff021916908373ffffffffffffffffffffffffffffffffffffffff1602179055506040820151816002019080519060200190610241929190610433565b50606082015181600301559050509392505050565b6000809054906101000a900473ffffffffffffffffffffffffffffffffffffffff1673ffffffffffffffffffffffffffffffffffffffff163373ffffffffffffffffffffffffffffffffffffffff161415156102b157600080fd5b6000809054906101000a900473ffffffffffffffffffffffffffffffffffffffff1673ffffffffffffffffffffffffffffffffffffffff16ff5b6102f36104b3565b6102fb6104b3565b6000806103066104b3565b60008060015414156103395760006040518059106103215750595b9080825280602002602001820160405250955061042b565b6001546040518059106103495750595b9080825280602002602001820160405250945060009350600192505b600154831115156103b8576002600084815260200190815260200160002060000154858581518110151561039557fe5b906020019060200201818152505083806001019450508280600101935050610365565b836040518059106103c65750595b90808252806020026020018201604052509150600090505b838110156104275784818151811015156103f457fe5b90602001906020020151828281518110151561040c57fe5b906020019060200201818152505080806001019150506103de565b8195505b505050505090565b828054600181600116156101000203166002900490600052602060002090601f016020900481019282601f1061047457805160ff19168380011785556104a2565b828001600101855582156104a2579182015b828111156104a1578251825591602001919060010190610486565b5b5090506104af91906104c7565b5090565b602060405190810160405280600081525090565b6104e991905b808211156104e55760008160009055506001016104cd565b5090565b905600a165627a7a72305820dfdedc96066dd6aa003802a3a9d9a7b5e36dcaf105e04ba92c2f0741e2ee9c9d0029",
  "source": "pragma solidity ^0.4.2;\n\nimport \"./Owned.sol\";\n\ncontract Cars is Owned {\n\nstruct Car {\n    uint    id;\n    address carAddress;\n    string  field;\n    uint256 answer;\n}\n    uint numCars;\n    mapping (uint => Car) cars;\n\n    function newCar(address _carAddress, string _field, uint256 _answer) public returns (uint _carID) {\n        _carID = numCars++; // campaignID is return variable\n        // Creates new struct and saves in storage. We leave out the mapping type.\n        cars[_carID] = Car(_carID, _carAddress, _field, _answer);\n        }\n\n    function listCards() view returns (uint[]) {\n        if (numCars == 0) {\n        return new uint[](0);\n        }\n\n        // prepare intermediary array\n        uint[] memory cardIds = new uint[](numCars);\n\n        uint numberOfCards = 0;\n        // iterate over cards\n        for (uint i = 1; i <= numCars; i++) {\n        // keep only the ID of articles not sold yet\n            cardIds[numberOfCards] = cars[i].id;\n            numberOfCards++;\n        \n        }\n\n        // copy the articleIds array into the smaller forSale array\n        uint[] memory carCards = new uint[](numberOfCards);\n        for (uint j = 0; j < numberOfCards; j++) {\n        carCards[j] = cardIds[j];\n        }\n        return (carCards);\n    }\n\n    // kill the smart contract\n    function kill() onlyOwner public {\n    selfdestruct(owner);\n  }\n}",
  "sourcePath": "/Users/neilalexanderdownie/Dropbox/webdev/TopBlox/contracts/Cars.sol",
  "compiler": {
    "name": "solc",
    "version": "0.4.19+commit.c4cbbb05.Emscripten.clang"
  },
  "schemaVersion": "2.0.0",
  "updatedAt": "2018-03-15T17:40:05.497Z"
}