{
  "contractName": "Cars",
  "abi": [
    {
      "constant": false,
      "inputs": [],
      "name": "setupCarList",
      "outputs": [],
      "payable": false,
      "stateMutability": "nonpayable",
      "type": "function"
    },
    {
      "constant": false,
      "inputs": [
        {
          "name": "_field",
          "type": "string"
        },
        {
          "name": "_answer",
          "type": "string"
        }
      ],
      "name": "newCar",
      "outputs": [
        {
          "name": "_carID",
          "type": "uint256"
        }
      ],
      "payable": false,
      "stateMutability": "nonpayable",
      "type": "function"
    },
    {
      "constant": true,
      "inputs": [],
      "name": "listCars",
      "outputs": [
        {
          "name": "",
          "type": "uint256[]"
        }
      ],
      "payable": false,
      "stateMutability": "view",
      "type": "function"
    },
    {
      "constant": true,
      "inputs": [
        {
          "name": "_id",
          "type": "uint256"
        }
      ],
      "name": "getCar",
      "outputs": [
        {
          "name": "_field",
          "type": "string"
        },
        {
          "name": "_answer",
          "type": "string"
        }
      ],
      "payable": false,
      "stateMutability": "view",
      "type": "function"
    },
    {
      "constant": false,
      "inputs": [],
      "name": "kill",
      "outputs": [],
      "payable": false,
      "stateMutability": "nonpayable",
      "type": "function"
    }
  ],
  "bytecode": "0x6060604052336000806101000a81548173ffffffffffffffffffffffffffffffffffffffff021916908373ffffffffffffffffffffffffffffffffffffffff1602179055506109ff806100536000396000f30060606040526004361061006d576000357c0100000000000000000000000000000000000000000000000000000000900463ffffffff16806341c0e1b5146100725780635e8be19014610087578063cdb3ef181461018f578063d533e8b3146101f9578063e2edca61146102ad575b600080fd5b341561007d57600080fd5b6100856102c2565b005b341561009257600080fd5b6100a86004808035906020019091905050610357565b604051808060200180602001838103835285818151815260200191508051906020019080838360005b838110156100ec5780820151818401526020810190506100d1565b50505050905090810190601f1680156101195780820380516001836020036101000a031916815260200191505b50838103825284818151815260200191508051906020019080838360005b83811015610152578082015181840152602081019050610137565b50505050905090810190601f16801561017f5780820380516001836020036101000a031916815260200191505b5094505050505060405180910390f35b341561019a57600080fd5b6101a26104f5565b6040518080602001828103825283818151815260200191508051906020019060200280838360005b838110156101e55780820151818401526020810190506101ca565b505050509050019250505060405180910390f35b341561020457600080fd5b610297600480803590602001908201803590602001908080601f0160208091040260200160405190810160405280939291908181526020018383808284378201915050505050509190803590602001908201803590602001908080601f0160208091040260200160405190810160405280939291908181526020018383808284378201915050505050509190505061063d565b6040518082815260200191505060405180910390f35b34156102b857600080fd5b6102c06106ce565b005b6000809054906101000a900473ffffffffffffffffffffffffffffffffffffffff1673ffffffffffffffffffffffffffffffffffffffff163373ffffffffffffffffffffffffffffffffffffffff1614151561031d57600080fd5b6000809054906101000a900473ffffffffffffffffffffffffffffffffffffffff1673ffffffffffffffffffffffffffffffffffffffff16ff5b61035f610906565b610367610906565b60008060015411151561037957600080fd5b60008411801561038b57506001548411155b151561039657600080fd5b6002600085815260200190815260200160002090508060010181600201818054600181600116156101000203166002900480601f0160208091040260200160405190810160405280929190818152602001828054600181600116156101000203166002900480156104485780601f1061041d57610100808354040283529160200191610448565b820191906000526020600020905b81548152906001019060200180831161042b57829003601f168201915b50505050509150808054600181600116156101000203166002900480601f0160208091040260200160405190810160405280929190818152602001828054600181600116156101000203166002900480156104e45780601f106104b9576101008083540402835291602001916104e4565b820191906000526020600020905b8154815290600101906020018083116104c757829003601f168201915b505050505090509250925050915091565b6104fd61091a565b61050561091a565b60008061051061091a565b600080600154141561054357600060405180591061052b5750595b90808252806020026020018201604052509550610635565b6001546040518059106105535750595b9080825280602002602001820160405250945060009350600192505b600154831115156105c2576002600084815260200190815260200160002060000154858581518110151561059f57fe5b90602001906020020181815250508380600101945050828060010193505061056f565b836040518059106105d05750595b90808252806020026020018201604052509150600090505b838110156106315784818151811015156105fe57fe5b90602001906020020151828281518110151561061657fe5b906020019060200201818152505080806001019150506105e8565b8195505b505050505090565b60006001600081548092919060010191905055905060606040519081016040528082815260200184815260200183815250600260008381526020019081526020016000206000820151816000015560208201518160010190805190602001906106a792919061092e565b5060408201518160020190805190602001906106c492919061092e565b5090505092915050565b60008060009054906101000a900473ffffffffffffffffffffffffffffffffffffffff1673ffffffffffffffffffffffffffffffffffffffff163373ffffffffffffffffffffffffffffffffffffffff1614151561072b57600080fd5b61079f6040805190810160405280600581526020017f7469746c650000000000000000000000000000000000000000000000000000008152506040805190810160405280600481526020017f4d696e690000000000000000000000000000000000000000000000000000000081525061063d565b90506108156040805190810160405280600581526020017f7469746c650000000000000000000000000000000000000000000000000000008152506040805190810160405280600381526020017f424d57000000000000000000000000000000000000000000000000000000000081525061063d565b905061088b6040805190810160405280600581526020017f7469746c650000000000000000000000000000000000000000000000000000008152506040805190810160405280600481526020017f476f6c660000000000000000000000000000000000000000000000000000000081525061063d565b90506109016040805190810160405280600581526020017f7469746c650000000000000000000000000000000000000000000000000000008152506040805190810160405280600b81526020017f526f6c6c7320526f79636500000000000000000000000000000000000000000081525061063d565b905050565b602060405190810160405280600081525090565b602060405190810160405280600081525090565b828054600181600116156101000203166002900490600052602060002090601f016020900481019282601f1061096f57805160ff191683800117855561099d565b8280016001018555821561099d579182015b8281111561099c578251825591602001919060010190610981565b5b5090506109aa91906109ae565b5090565b6109d091905b808211156109cc5760008160009055506001016109b4565b5090565b905600a165627a7a72305820fd3be8571a4523e9f6e99bcca9441738cf10186f459b6bf30bcb6925b79d31f90029",
  "source": "pragma solidity ^0.4.2;\n\nimport \"./Owned.sol\";\n\ncontract Cars is Owned {\n\nstruct Car {\n    uint    id;\n //   address carAddress;\n    string  field;\n    string answer;\n}\n    uint numCars;\n    mapping (uint => Car) cars;\n\n    function setupCarList() onlyOwner public {\n        uint newCarID;\n        newCarID = newCar(\"title\",\"Mini\");\n        newCarID = newCar(\"title\",\"BMW\");\n        newCarID = newCar(\"title\",\"Golf\");\n        newCarID = newCar(\"title\",\"Rolls Royce\");\n    }\n\n    function newCar(string _field, string _answer) public returns (uint _carID) {\n        _carID = numCars++; // campaignID is return variable\n        // Creates new struct and saves in storage. We leave out the mapping type.\n        //_carAddress = address.new();\n        cars[_carID] = Car(_carID,  _field, _answer);\n        }\n\n    //function listCars() public view returns (uint[]) {\n    function listCars() public view returns (uint[]) {\n        if (numCars == 0) {\n        return new uint[](0);\n        }\n\n        // prepare intermediary array\n        uint[] memory cardIds = new uint[](numCars);\n\n        uint numberOfCards = 0;\n        // iterate over cards\n        for (uint i = 1; i <= numCars; i++) {\n        // keep only the ID of articles not sold yet\n            cardIds[numberOfCards] = cars[i].id;\n            numberOfCards++;\n        \n        }\n\n        // copy the articleIds array into the smaller forSale array\n        uint[] memory carCards = new uint[](numberOfCards);\n        for (uint j = 0; j < numberOfCards; j++) {\n        carCards[j] = cardIds[j];\n        }\n        return (carCards);\n    }\n\n    function getCar(uint _id) public view returns (string  _field,string _answer ) {\n        // we check whether there is at least one car\n    require(numCars > 0);\n\n    // we check whether the article exists\n    require(_id > 0 && _id <= numCars);\n     \n    //retrieve the car details\n    Car storage car = cars[_id];\n\n    //string[4] arrCar = car(_id); \n    return (car.field,car.answer);\n       // car(0),car(_id)(1),car(_id)(2),car(_id)(3));\n\n     }\n\n    // kill the smart contract\n    function kill() onlyOwner public {\n    selfdestruct(owner);\n  }\n}",
  "sourcePath": "/Volumes/STORAGE/Dropbox/webdev/TopBlox/contracts/Cars.sol",
  "compiler": {
    "name": "solc",
    "version": "0.4.19+commit.c4cbbb05.Emscripten.clang"
  },
  "schemaVersion": "2.0.0",
  "updatedAt": "2018-03-15T23:53:24.009Z"
}