{
  "contractName": "ChainList",
  "abi": [
    {
      "constant": true,
      "inputs": [
        {
          "name": "",
          "type": "uint256"
        }
      ],
      "name": "packs",
      "outputs": [
        {
          "name": "name",
          "type": "string"
        },
        {
          "name": "pack",
          "type": "address"
        }
      ],
      "payable": false,
      "stateMutability": "view",
      "type": "function"
    },
    {
      "constant": false,
      "inputs": [],
      "name": "addUser",
      "outputs": [],
      "payable": false,
      "stateMutability": "nonpayable",
      "type": "function"
    },
    {
      "constant": false,
      "inputs": [],
      "name": "editWallet",
      "outputs": [],
      "payable": false,
      "stateMutability": "nonpayable",
      "type": "function"
    },
    {
      "constant": false,
      "inputs": [],
      "name": "enterDraw",
      "outputs": [],
      "payable": false,
      "stateMutability": "nonpayable",
      "type": "function"
    },
    {
      "constant": true,
      "inputs": [],
      "name": "getNumberOfPacks",
      "outputs": [
        {
          "name": "",
          "type": "uint256"
        }
      ],
      "payable": false,
      "stateMutability": "view",
      "type": "function"
    },
    {
      "constant": true,
      "inputs": [],
      "name": "getPacks",
      "outputs": [
        {
          "name": "",
          "type": "uint256"
        },
        {
          "name": "",
          "type": "string"
        }
      ],
      "payable": false,
      "stateMutability": "view",
      "type": "function"
    },
    {
      "constant": true,
      "inputs": [],
      "name": "getCards",
      "outputs": [
        {
          "name": "",
          "type": "uint256"
        },
        {
          "name": "",
          "type": "string"
        }
      ],
      "payable": false,
      "stateMutability": "view",
      "type": "function"
    },
    {
      "constant": false,
      "inputs": [],
      "name": "getUserCardsByPack",
      "outputs": [],
      "payable": false,
      "stateMutability": "nonpayable",
      "type": "function"
    },
    {
      "constant": false,
      "inputs": [],
      "name": "listUsersMatchingCards",
      "outputs": [],
      "payable": false,
      "stateMutability": "nonpayable",
      "type": "function"
    }
  ],
  "bytecode": "0x6060604052336000806101000a81548173ffffffffffffffffffffffffffffffffffffffff021916908373ffffffffffffffffffffffffffffffffffffffff1602179055506103f9806100536000396000f300606060405260043610610099576000357c0100000000000000000000000000000000000000000000000000000000900463ffffffff168063455c928c1461009e5780635bfd65bd146100b357806366825392146100c8578063668d83a71461015d57806377150520146101725780638cf0439814610187578063b0df9e53146101b0578063b84c139214610245578063eb9195b314610331575b600080fd5b34156100a957600080fd5b6100b1610346565b005b34156100be57600080fd5b6100c6610348565b005b34156100d357600080fd5b6100db61034a565b6040518083815260200180602001828103825283818151815260200191508051906020019080838360005b83811015610121578082015181840152602081019050610106565b50505050905090810190601f16801561014e5780820380516001836020036101000a031916815260200191505b50935050505060405180910390f35b341561016857600080fd5b610170610358565b005b341561017d57600080fd5b61018561035a565b005b341561019257600080fd5b61019a61035c565b6040518082815260200191505060405180910390f35b34156101bb57600080fd5b6101c3610366565b6040518083815260200180602001828103825283818151815260200191508051906020019080838360005b838110156102095780820151818401526020810190506101ee565b50505050905090810190601f1680156102365780820380516001836020036101000a031916815260200191505b50935050505060405180910390f35b341561025057600080fd5b6102666004808035906020019091905050610374565b60405180806020018373ffffffffffffffffffffffffffffffffffffffff1673ffffffffffffffffffffffffffffffffffffffff1681526020018281038252848181546001816001161561010002031660029004815260200191508054600181600116156101000203166002900480156103215780601f106102f657610100808354040283529160200191610321565b820191906000526020600020905b81548152906001019060200180831161030457829003601f168201915b5050935050505060405180910390f35b341561033c57600080fd5b6103446103b7565b005b565b565b60006103546103b9565b9091565b565b565b6000600254905090565b60006103706103b9565b9091565b600160205280600052604060002060009150905080600001908060010160009054906101000a900473ffffffffffffffffffffffffffffffffffffffff16905082565b565b6020604051908101604052806000815250905600a165627a7a7230582046ba8a3d11e493462f60d1b34cb7af456d0b32106f411a47f4e586146380d0920029",
  "source": "pragma solidity ^0.4.2;\n\nimport \"./Owned.sol\";\n\ncontract ChainList is Owned {\n\nstruct User {\n    address user;\n    address wallet;\n}\n\nstruct Packs {\n    string name;\n    address pack;\n}\n\n// State variables\nmapping(uint => Packs) public packs;\nuint packCounter;\n\nstruct Cards {\n    string name;\n    string details;\n    uint   pack;\n}\n\nstruct Draws {\n    uint id;\n    uint user1;\n    uint256 user1Stake;\n    uint user2;\n    uint256 user2Stake;\n    uint    packId;\n    uint    winningUserId;\n    mapping(uint => Cards) cards;\n}\n\nfunction addUser() {}\nfunction editWallet() {}\nfunction enterDraw() {}\n\n\nfunction getNumberOfPacks() public constant returns (uint) {\n    return packCounter;\n}\n\nfunction getPacks() public constant returns (uint,string) {\n//check whether there's at least one card\n    if (packCounter != 0) {\n    //return new uint[], new string[];\n    }\n}\nfunction getCards() public constant returns (uint, string){\n    if (packCounter != 0) {\n    //return new uint[], new string[];\n    }\n}\nfunction getUserCardsByPack() {}\nfunction listUsersMatchingCards() {}\n\n\n\n\n\n\n}\n",
  "sourcePath": "/Users/neilalexanderdownie/Dropbox/webdev/TopBlox/contracts/TopBlox.sol",
  "compiler": {
    "name": "solc",
    "version": "0.4.19+commit.c4cbbb05.Emscripten.clang"
  },
  "schemaVersion": "2.0.0",
  "updatedAt": "2018-03-15T00:10:32.076Z"
}