{
  "contractName": "TopBlox",
  "abi": [
    {
      "constant": true,
      "inputs": [
        {
          "name": "",
          "type": "uint256"
        }
      ],
      "name": "packs",
      "outputs": [
        {
          "name": "name",
          "type": "string"
        },
        {
          "name": "pack",
          "type": "address"
        }
      ],
      "payable": false,
      "stateMutability": "view",
      "type": "function"
    }
  ],
  "bytecode": "0x6060604052336000806101000a81548173ffffffffffffffffffffffffffffffffffffffff021916908373ffffffffffffffffffffffffffffffffffffffff1602179055506101a1806100536000396000f300606060405260043610610041576000357c0100000000000000000000000000000000000000000000000000000000900463ffffffff168063b84c139214610046575b600080fd5b341561005157600080fd5b6100676004808035906020019091905050610132565b60405180806020018373ffffffffffffffffffffffffffffffffffffffff1673ffffffffffffffffffffffffffffffffffffffff1681526020018281038252848181546001816001161561010002031660029004815260200191508054600181600116156101000203166002900480156101225780601f106100f757610100808354040283529160200191610122565b820191906000526020600020905b81548152906001019060200180831161010557829003601f168201915b5050935050505060405180910390f35b600160205280600052604060002060009150905080600001908060010160009054906101000a900473ffffffffffffffffffffffffffffffffffffffff169050825600a165627a7a7230582080e769f04648a8c9dd19b784362bc4711cf582d93ca05278d364ea80a6049b540029",
  "source": "pragma solidity ^0.4.2;\n\nimport \"./Owned.sol\";\n\ncontract TopBlox is Owned {\n\nstruct User {\n    address user;\n    address wallet;\n}\n\nstruct Packs {\n    string name;\n    address pack;\n}\n\n// State variables\nmapping(uint => Packs) public packs;\nuint packCounter;\n\nstruct Cards {\n    string name;\n    string details;\n    uint   pack;\n}\n\nstruct Draws {\n    uint id;\n    uint user1;\n    uint256 user1Stake;\n    uint user2;\n    uint256 user2Stake;\n    uint    packId;\n    uint    winningUserId;\n    mapping(uint => Cards) cards;\n}\n\n// function addPack(){\n\n// }\n\n//function addUser() {}\n//function editWallet() {}\n//function enterDraw() {}\n\n//Get the number of packs in the contract\n// function getNumberOfPacks() public constant returns (uint) {\n//     return packCounter;\n// }\n\n// //Get and return all pack ids\n// function getPacks() public constant returns (uint[]) {\n// //check whether there's at least one card\n//     if (packCounter == 0) {\n//     return new uint[](0);\n//     }\n//     //prepare intermediate array\n//     uint[] memory packIds = new uint[](packCounter);\n\n//     uint numberOfPacks = 0;\n//     //iterate through packs\n//     for (uint i = 1; i <= packCounter; i++){\n//         packIds[numberOfPacks] = Packs[i].pack;\n//         numberOfPacks++;\n//     }\n// }\n// function getCards() public constant returns (uint, string){\n//     if (packCounter != 0) {\n//     //return new uint[], new string[];\n//     }\n// }\n//function getUserCardsByPack() {}\n//function listUsersMatchingCards() {}\n\n\n\n\n\n\n}\n",
  "sourcePath": "/Volumes/STORAGE/Dropbox/webdev/TopBlox/contracts/TopBlox.sol",
  "compiler": {
    "name": "solc",
    "version": "0.4.19+commit.c4cbbb05.Emscripten.clang"
  },
  "schemaVersion": "2.0.0",
  "updatedAt": "2018-03-15T23:53:24.007Z"
}